:020000020000FC
:0200000046C0F8
:0200040087C0B3
:0200080084C0B2
:10008C0044C000E10EBF0FEF0DBF00E001BB03E069
:10009C0002BB0FEF07BB00EA0093990001E000934D
:1000AC00980000E900939D000EE003E009BF0AE010
:1000BC0000936A00A0E0B1E0C0E0D1E00881053512
:1000CC00E9F729D00981003B09F40DD0003809F477
:1000DC000DD0003A09F40DD0003909F40DD0083CCC
:1000EC0069F70DD0EBCF00E608BB089500E008BB24
:1000FC00089500E408BB089500E208BB089500E9E8
:10010C0008BB08950895189518950F9300919C00BD
:0C011C000D930F911895A0E0B1E008953C
:00000001FF
