:020000020000FC
:0200000045C0F9
:02000400CAC070
:02000800ADC089
:02007800ABC01B
:10008C0000E10EBF0FEF0DBF00E001BB03E002BBB0
:10009C000FEF07BB00E008BB60E003E000939800A3
:1000AC0000E40093990002E000939B0008E90093A0
:1000BC009A000EE000939D0003E009BF0AE0009354
:1000CC006A007894A0E0B1E0C0E0D1E000E00D93CC
:1000DC000C9396D0FFCF00E608BB089500E008BB58
:1000EC00089500E408BB089500E208BB089500E9F8
:1000FC0008BB08953F934F935F9350EE4DEE4A9596
:10010C00F1F75A95D9F73A95C1F75F914F913F9115
:10011C0018952F9328B36395EADF633039F03FEFDE
:10012C00E9DF3FEFE7DF28BB2F910895FFCF08E809
:10013C0000939A0000919B0005FFF9CF05E5009311
:10014C009C0000919B0006FFFCCF097F00939B0055
:10015C0008E900939A0008950F933F930FB70F93FC
:10016C0008E100939A0000E008BB34E6C3DF00E22C
:10017C0008BB34E6BFDF00E608BB0FEF08BF08E999
:10018C0000939A000F910FBF3F910F9118950F9309
:10019C003F930FB70F9308E100939A0000E008BB60
:1001AC0034E6A8DF00E408BB34E6A4DF00E608BBB5
:1001BC000FEF08BF08E900939A000F910FBF3F9112
:1001CC000F91189500919C000C9300919B00087F57
:1001DC0000939B003C900DE5031569F400919B0086
:1001EC0007FFFCCF00919C000C9300919B00087FB3
:1001FC0000939B0008D005E5031509F48ADF1895D8
:10020C00A0E0B1E008950C91003B09F464DF0038E4
:10021C0009F464DF003A09F464DF003909F464DF9F
:10022C00083C09F464DF083F09F481DFE9DF089535
:00000001FF
