:020000020000FC
:0200000045C0F9
:02000400C0C07A
:02000800A3C093
:02007800A1C025
:10008C0000E10EBF0FEF0DBF00E001BB03E002BBB0
:10009C000FEF07BB00E008BB03E00093980000E4FF
:1000AC000093990002E000939B0008E900939A00EA
:1000BC000EE000939D0003E009BF0AE000936A0084
:1000CC007894A0E0B1E0C0E0D1E000E00D930C9397
:1000DC008DD0FFCF00E608BB089500E008BB089563
:1000EC0000E408BB089500E208BB089500E908BBD2
:1000FC0008953F934F935F9350EE4DEE4A95F1F771
:10010C005A95D9F73A95C1F75F914F913F91189550
:10011C003FEFEFDF3FEFEDDF089508E800939A0023
:10012C0000919B0005FFF9CF05E500939C00009121
:10013C009B0006FFFCCF097F00939B0008E900930E
:10014C009A0008950F933F930FB70F9308E1009314
:10015C009A0000E008BB34E6CCDF00E208BB34E6D2
:10016C00C8DF00E608BB0FEF08BF08E900939A0050
:10017C000F910FBF3F910F9118950F933F930FB7AE
:10018C000F9308E100939A0000E008BB34E6B1DF5E
:10019C0000E408BB34E6ADDF00E608BB0FEF08BF98
:1001AC0008E900939A000F910FBF3F910F9118959A
:1001BC0000919C000C9300919B00087F00939B0086
:1001CC003C900DE4031569F400919B0007FFFCCFF4
:1001DC0000919C000C9300919B00087F00939B0066
:1001EC0008D005E5031509F493DF1895A0E0B1E0FC
:1001FC0008950C91003B09F46DDF003809F46DDFB4
:10020C00003A09F46DDF003909F46DDF083C09F49C
:0C021C006DDF083F09F481DFE9DF089581
:00000001FF
