:020000020000FC
:0200000045C0F9
:0200040063C0D7
:0200080066C0D0
:02000C0069C0C9
:020014006AC0C0
:020018006DC0B9
:02001C0070C0B2
:10008C0000E10EBF0FEF0DBF08E001BB1AE206E165
:10009C000093990002E90093980000E000939B0004
:1000AC0008E000939A000EE000939D0000270AE2FE
:1000BC0000936A000AE20ABF07E309BF7894FFCFF6
:1000CC0020EB18D00FEF08BF189520E813D00FEFD6
:1000DC0008BF189520EA0ED00FEF08BF189520E93D
:1000EC0009D00FEF08BF189528EC04D00FEF08BF0C
:1000FC001895189500919B0005FFFCCF10939C0060
:10010C0000919B00097F00939B0000919B0005FFD1
:10011C00FCCF20939C0000919B00097F00939B00D7
:02012C00089534
:00000001FF
