:020000020000FC
:0200000045C0F9
:020004007AC0C0
:0200080077C0BF
:0200780041C085
:10008C0000E10EBF0FEF0DBF00E001BB03E002BBB0
:10009C000FEF07BB00E008BB03E00093980000E4FF
:1000AC000093990002E000939B0000E900939A00F2
:1000BC000EE000939D0003E009BF0AE000936A0084
:1000CC00A0E0B1E0C0E0D1E01BD0FECF00E608BB61
:1000DC00089500E008BB089500E408BB089500E211
:1000EC0008BB089500E908BB089508951895189564
:1000FC000F9300919C000C930FEF08BB0F91189578
:06010C00A0E0B1E008953F
:00000001FF
