:020000020000FC
:0200000045C0F9
:0200040067C0D3
:020008006AC0CC
:0200140069C0C1
:020018006CC0BA
:02001C006FC0B3
:0200200072C0AC
:10008C0000E10EBF0FEF0DBF0FEF07BB00E001BB90
:10009C000FEF02BB1DE403E00093980000E4009313
:1000AC00990002E000939B0008E000939A000EE098
:1000BC0000939D0000270AE200936A000AE20ABF3F
:1000CC0007E309BF7894FFCF20EB18D00FEF08BFE0
:1000DC00189520E813D00FEF08BF189520EA0ED022
:1000EC000FEF08BF189520E909D00FEF08BF18953E
:1000FC0028EC04D00FEF08BF1895189500919B00C1
:10010C0005FFFCCF10939C0000919B0005FFFCCFDA
:10011C0020939C0000919B0006FFFCCF097F00936D
:04012C009B00089597
:00000001FF
