:020000020000FC
:0200000045C0F9
:10008C0000E10EBF0FEF0DBF0FEF07BB00E001BB90
:10009C000FEF02BB1DE403E00093980000E4009313
:1000AC00990002E000939B0008E000939A000EE098
:1000BC0000939D00789400B308BB0E3F11F416D04A
:1000CC00FACF0D3F11F415D0F6CF0F3E11F414D02A
:1000DC00F2CF0F3D11F413D0EECF0F3B11F412D031
:1000EC00EACF0F3711F411D0E6CFE5CF20EB10D0CB
:1000FC00089520E80DD0089520EA0AD0089520E94B
:10010C0007D0089528EC04D0089528EF01D0089565
:10011C0000919B0005FFFCCF10939C0000919B006D
:10012C0005FFFCCF20939C0000919B0006FFFCCFA9
:08013C00097F00939B00089568
:00000001FF
