:020000020000FC
:0200000045C0F9
:10008C0000E10EBF0FEF0DBF0FEF07BB00E001BB90
:10009C000FEF02BB1DE403E00093980000E4009313
:1000AC00990002E000939B0008E000939A000EE098
:1000BC0000939D00789400B308BB0E3F11F412D04E
:1000CC00FACF0D3F11F413D0F6CF0F3E11F414D02C
:1000DC00F2CF0F3D11F415D0EECF0F3B11F416D02B
:1000EC00EACFE9CF20EB18D00FEF08BF089520E836
:1000FC0013D00FEF08BF089520EA0ED00FEF08BF02
:10010C00089520E909D00FEF08BF089528EC04D01A
:10011C000FEF08BF0895089500919B0005FFFCCFD9
:10012C0010939C0000919B0005FFFCCF20939C003A
:10013C0000919B0006FFFCCF097F00939B00089564
:00000001FF
