:020000020000FC
:0200000045C0F9
:020004009DC09D
:020008009AC09C
:0200780064C062
:10008C0000E10EBF0FEF0DBF00E001BB03E002BBB0
:10009C000FEF07BB00E008BB03E00093980000E4FF
:1000AC000093990002E000939B0008E900939A00EA
:1000BC000EE000939D0003E009BF0AE000936A0084
:1000CC007894A0E0B1E0C0E0D1E000E00D930C9397
:1000DC0050D0FFCF00E608BB089500E008BB0895A0
:1000EC0000E408BB089500E208BB089500E908BBD2
:1000FC0008953F934F935F9350EE4DEE4A95F1F771
:10010C005A95D9F73A95C1F75F914F913F91089560
:10011C00F0DF089500919B0005FFFCCF05E50093EF
:10012C009C0000919B0006FFFCCF097F00939B0075
:10013C0008951895189500919C000C9300919B00C4
:10014C00087F00939B003C900DE4031569F400912B
:10015C009B0007FFFCCF00919C000C9300919B002F
:10016C00087F00939B0008D005E5031509F4D0DF48
:10017C001895A0E0B1E008950C91003B09F4AADFBA
:10018C00003809F4AADF003A09F4AADF003909F4AF
:0C019C00AADF083C09F4AADFECDF08959C
:00000001FF
