:020000020000FC
:0200000045C0F9
:020004008DC0AD
:020008008AC0AC
:0200780054C072
:10008C0000E10EBF0FEF0DBF00E001BB03E002BBB0
:10009C000FEF07BB00E008BB03E00093980000E4FF
:1000AC000093990002E000939B0008E900939A00EA
:1000BC000EE000939D0003E009BF0AE000936A0084
:1000CC007894A0E0B1E0C0E0D1E000E00D930C9397
:1000DC0040D0FFCF00E608BB089500E008BB0895B0
:1000EC0000E408BB089500E208BB089500E908BBD2
:1000FC000895089500919B0005FFFCCF05E5009342
:10010C009C0000919B0006FFFCCF097F00939B0095
:10011C0008951895189500919C000C9300919B00E4
:10012C00087F00939B003C900DE4031569F400914B
:10013C009B0007FFFCCF00919C000C9300919B004F
:10014C00087F00939B0008D005E5031509F4D1DF67
:10015C001895A0E0B1E008950C91003B09F4BADFCA
:10016C00003809F4BADF003A09F4BADF003909F4AF
:0C017C00BADF083C09F4BADFECDF08959C
:00000001FF
