:020000020000FC
:0200000045C0F9
:10008C0000E10EBF0FEF0DBF0FEF07BB00E001BB90
:10009C000FEF02BB1DE403E00093980000E4009313
:1000AC00990002E000939B0008E000939A000EE098
:1000BC0000939D00789400B30E3F11F416D0FBCF43
:1000CC000D3F11F415D0F7CF0F3E11F414D0F3CF30
:1000DC000F3D11F413D0EFCF0F3B11F412D0EBCF37
:1000EC000F3711F411D0E7CFE6CF20EB10D00895E5
:1000FC0020E80DD0089520EA0AD0089520E907D011
:10010C00089528EC04D0089528EF01D008950091AB
:10011C009B0005FFFCCF10939C0000919B0005FFFA
:10012C00FCCF20939C0000919B0006FFFCCF097F25
:06013C0000939B000895F2
:00000001FF
