:020000020000FC
:0200000045C0F9
:10008C0000E10EBF0FEF0DBF0FEF07BB00E001BB90
:10009C000FEF02BB1DE403E00093980000E4009313
:1000AC00990002E000939B0008E000939A000EE098
:1000BC0000939D00789400B308BB0E3F11F416D04A
:1000CC00FACF0D3F11F417D0F6CF0F3E11F418D024
:1000DC00F2CF0F3D11F419D0EECF0F3B11F41AD023
:1000EC00EACF0F3711F41BD0E6CFE5CF20EB1AD0B7
:1000FC000FEF08BF089520E815D00FEF08BF089543
:10010C0020EA10D00FEF08BF089520E90BD00FEFB5
:10011C0008BF089528EC06D00FEF08BF089528EF0C
:10012C0001D0089500919B0005FFFCCF10939C001B
:10013C0000919B0005FFFCCF20939C0000919B003D
:0C014C0006FFFCCF097F00939B00089584
:00000001FF
