:020000020000FC
:0200000045C0F9
:02000400B4C086
:020008009DC099
:020078008FC037
:10008C0000E10EBF0FEF0DBF00E001BB03E002BBB0
:10009C000FEF07BB00E008BB03E00093980000E4FF
:1000AC000093990002E000939B0008E900939A00EA
:1000BC000EE000939D0003E009BF0AE000936A0084
:1000CC007894A0E0B1E0C0E0D1E000E00D930C9397
:1000DC007BD0FFCF00E608BB089500E008BB089575
:1000EC0000E408BB089500E208BB089500E908BBD2
:1000FC0008953F934F935F9350EE4DEE4A95F1F771
:10010C005A95D9F73A95C1F75F914F913F91189550
:10011C003FEFEFDF3FEFEDDF089500919B0005FF10
:10012C00FCCF05E500939C0000919B0006FFFCCFE3
:10013C00097F00939B0008950F933F930FB70F9384
:10014C0000E008BB34E6D5DF00E208BB34E6D1DFC3
:10015C0000E608BB0FEF08BF0F910FBF3F910F9147
:10016C0018950F933F930FB70F9300E008BB34E63D
:10017C00C0DF00E408BB34E6BCDF00E608BB0FEFD1
:10018C0008BF0F910FBF3F910F91189500919C00E4
:10019C000C9300919B00087F00939B003C900DE416
:1001AC00031569F400919B0007FFFCCF00919C00A4
:1001BC000C9300919B00087F00939B0008D005E5F1
:1001CC00031509F4A5DF1895A0E0B1E008950C9192
:1001DC00003B09F47FDF003809F47FDF003A09F4B3
:1001EC007FDF003909F47FDF083C09F47FDFECDFA7
:0201FC00089564
:00000001FF
